:020000040001F9
:10800000B8310020F58001000F81010011810100CD
:108010000000000000000000000000000000000060
:1080200000000000000000000000000013810100BB
:108030000000000000000000158101001781010010
:1080400019810100198101003587010019810100A2
:108050001981010000000000F18201001981010076
:1080600019810100198101001981010019810100A4
:108070001981010019810100198101001981010094
:108080001981010021860100198101001981010077
:108090004986010019810100518601001981010002
:1080A000198101001981010000000000000000009A
:1080B00000000000000000000000000000000000C0
:1080C0000348854600F0C4F800480047F5E6010083
:1080D000B8310020401E00BF00BF00BF00BF00BF7E
:1080E00000BF00BF00BF00BF00BF00BF00BFF1D195
:1080F000704700000321094802680A4302600848EB
:1081000002680A4302600748804707480047FEE7C5
:10811000FEE7FEE7FEE7FEE7FEE70000240500407D
:108120005405004089860100C180010030B50B462E
:10813000014600202022012409E00D46D5409D4241
:1081400005D31D469540491B2546954040191546C7
:10815000521E002DF1DC30BD70B5002425460028EC
:1081600001DA01244042002901DA01254942FFF7E2
:10817000DDFFAC4200D04042002C00D0494270BD2F
:1081800003460B439B0703D009E008C9121F08C030
:10819000042AFAD203E00B780370401C491C521EDB
:1081A000F9D27047D2B201E00270401C491EFBD2E6
:1081B00070470022F6E710B513460A4604461946F2
:1081C000FFF7F0FF204610BD421C0178401C00293B
:1081D000FBD1801A704730B504460020034600E00A
:1081E0005B1C934203D2E05CCD5C401BF8D030BDF9
:1081F000F0B51FB40646002082B005464024019128
:1082000000901BE0019922460F46304600F042F8EC
:10821000049A059B801A994110D3104619462246AC
:1082200000F028F8361A8F410197224601200021DC
:10823000009F00F01FF838184D4100902046641E42
:108240000028DFDC019B00982946324607B0F0BDCC
:10825000064C0125064E05E0E36807CC2B430C3C99
:1082600098471034B442F7D3FFF72EFF581002009E
:108270007810020010B5202A04DB0146203A914014
:10828000002010BD914020239C1A0346E34019436F
:10829000904010BD10B5202A04DB0846203AD0409B
:1082A000002110BD0B46D340D0402024A21A91409B
:1082B0000843194610BD30B58C180278401C1307CE
:1082C0001B0F01D10378401C120906D10278401C13
:1082D00003E005780D70401C491C5B1EF9D101E0DC
:1082E0000B70491C521EFBD1A142E6D3002030BDC9
:1082F000F0B587B0002600200690FF2001300590E1
:108300000125002416E0059806F01AFD00280BD080
:1083100000BF564840682840002805D0059806F060
:1083200007FD3046284306466D000598001D80B2C3
:108330000590641C042CE6D3FF207D3006F000FD80
:1083400000280AD0FF207D3006F0F2FC0120C00793
:10835000064300BF4648006906903007000F00281A
:108360002AD00125002425E02846304000281FD0CF
:1083700000BF4048512109014018A10040581F2169
:1083800009020840000A049000BF3A48512109013F
:108390004018A1004058032109040840000C039034
:1083A000204603F02DF8074603990498B84700BF0C
:1083B0006D00641C042CD7D3F00FC007002852D0E6
:1083C00000244EE02C480057401C002848D02A4882
:1083D000005D0490C021049888430746384603F0A6
:1083E00053F8029003F00CF803900398002836D05D
:1083F000C02104980840801102900120B840054631
:1084000000BF05200007072109024018B9004058A5
:10841000032109040840000C019006982840002818
:1084200002D00198022806D006982840002815D1CD
:108430000198032812D1029803280BD10198022831
:1084400001D1032000E0022000903846009906F098
:1084500035FC00BF3846039A0299904700BF00BF21
:10846000641C002CAED007B0F0BD000000630040DB
:108470000005005000600040B8270020C206D20E60
:1084800001219140014A11607047000080E200E044
:10849000C206D20E01219140014A116070470000CE
:1084A00000E100E0C206D20E01219140014A1160B4
:1084B0007047000000E200E010B5002819DA1A4AFF
:1084C00003071B0F083B9B089B00D2588307DC0E59
:1084D000FF23A3409A438B071B0E8407E40EA3409F
:1084E0001A43114B0407240F083CA408A4001A5196
:1084F00018E00E4A03231B02D21883089B00D258AF
:108500008307DC0EFF23A3409A438B071B0E8407CF
:10851000E40EA3401A43054B032424021B198408CC
:10852000A4001A5110BD00001CED00E000E100E0C5
:1085300010B5002819DA1A4A03071B0F083B9B08DD
:108540009B00D2588307DC0EFF23A3409A438B077E
:108550001B0E8407E40EA3401A43114B0407240F9B
:10856000083CA408A4001A5118E00E4A03231B0279
:10857000D21883089B00D2588307DC0EFF23A34048
:108580009A438B071B0E8407E40EA3401A43054B46
:10859000032424021B198408A4001A5110BD0000F2
:1085A0001CED00E000E100E010B5002819DA1A4ADD
:1085B00003071B0F083B9B089B00D2588307DC0E68
:1085C000FF23A3409A438B071B0E8407E40EA340AE
:1085D0001A43114B0407240F083CA408A4001A51A5
:1085E00018E00E4A03231B02D21883089B00D258BE
:1085F0008307DC0EFF23A3409A438B071B0E8407DF
:10860000E40EA3401A43054B032424021B198408DB
:10861000A4001A5110BD00001CED00E000E100E0D4
:1086200010B50020074908600021064841608160BC
:10863000C1600020034940390860486008F0BCF878
:1086400010BD00004011014010B507F065FF10BDDE
:1086500070B50C480068002810D00A4800688047B0
:10866000044600BF2546002D06D000BF002211465B
:10867000284600F07FFC00BF00BF01E005F06CFC65
:1086800070BD00006821002010B505F0F1FC002845
:1086900005D0074807494860C8130749886105F0B5
:1086A000CBFC002802D001200449886010BD0000E6
:1086B000DFFF07C000050040006C004000060040DE
:1086C00070B586B004460D46002600200490059043
:1086D000052168460182002141820595E188E08DEF
:1086E00004AAA4DF0646002E02D0304606B070BDB4
:1086F000E08D0F49884218D03020005D002814D04A
:1087000000200090019002900390E188684601806B
:1087100001218170418A818004A80290059803900C
:10872000E08D6946A6DF064600E008263046DDE714
:10873000FFFF00001CB523488068002822D00020DD
:108740002049886020488069C1B2204800F082FC3E
:108750000446002C08D00120694608700194684640
:108760001B49096888470CE0184804F061FF01289C
:1087700007D100206946087068461549096888478E
:1087800000BF00BF0F48C069002805D000200D4978
:10879000C861032006F05CFC0A48406A00280FD03C
:1087A00000200849486208488038046804600220B4
:1087B000694608700194684605490968884700BF02
:1087C0001CBD00000021004000250040BC27002007
:1087D000042100200FB410B503A9044B044A0298E9
:1087E00000F026F810BC08BC04B018470DD70100F3
:1087F0006021002030B47446641E2578641CAB42AE
:1088000004D3635D5B00E31830BC18471D46F8E7EE
:1088100002E008C8121F08C1002AFAD17047704749
:10882000002001E001C1121F002AFBD170470000A7
:10883000FFB591B00F460546002606E025280AD070
:10884000149A139990476D1C761C28780028F5D14E
:10885000304615B0F0BD002400940121F34A029483
:1088600000E004436D1C2B780846203B98401042E2
:10887000F7D128782A280ED0022128780246303AEB
:10888000092A15D8009A0A235A43303A80180C4313
:108890006D1C0090F1E701CF0090002805DA01205F
:1088A00040030443009840420090022004436D1CA2
:1088B00028782E2815D10420044368786D1C2A28B6
:1088C0000AD101CF6D1C02900BE002990A2251439C
:1088D000303940186D1C029028780146303909293A
:1088E000F3D928786C2810D006DC4C281AD06828D8
:1088F0000ED06A2817D104E0742813D07A2812D138
:1089000010E00120400504430CE00121090501E0CD
:10891000032109050C436978814203D10120000538
:1089200024186D1C6D1C287803906E281ED00CDC5A
:10893000632831D004DC00288AD0582811D1B2E055
:1089400064287BD069280CD178E073282DD004DC12
:108950006F2870D0702804D1A7E075286CD07828D3
:108960006BD0149A13999047761C62E06002400F16
:10897000022807D003280AD0042838680AD00660E5
:108980003F1D56E03868F11706604160F8E7386827
:108990000680F5E70670F3E738786946087400202A
:1089A000487404A80390012003E038680390002075
:1089B000C0433F1D61070FD5002101E00199491C0B
:1089C000029A0191914213DA8142F7DB019A0399ED
:1089D000895C0029F2D10BE0002101E00199491CDA
:1089E00001918142FADB019A0399895C0029F5D152
:1089F00001990098139A401A00902146149B00F0A8
:108A00003BF901998019461807E00398039900780B
:108A1000491C0391149A139990470198401E0190A4
:108A2000401CF2D12146149B139A009800F014F9CF
:108A300086196D1C09E741E033E034E00A2000218B
:108A4000049005916002410F022905D001CFC217A1
:108A50009446032905D007E0FF1DFF08FF0003CF60
:108A600006E000B2C2179446042902D140B2C117F1
:108A70008C4600226146944506DA0A4600214042AF
:108A800091418C462D2102E0210504D52B216A4617
:108A90001176012103E0E10701D02021F7E70191E0
:108AA00054E00A200BE0102009E01020049000217F
:108AB0000420044308200591029003E008200021CF
:108AC000059104906002410F022905D001CF0022D8
:108AD0009446032906D006E0FF1DFF08FF0003CFE0
:108AE0008C4603E080B2042900D1C0B2002101917C
:108AF00021072BD50399702906D0049A1021059BD4
:108B00004A401A4305D00EE040216A461176012101
:108B100008E06146014306D030216A461176039988
:108B2000517602210191049A0821059B4A401A437B
:108B30000CD16146014301D1610707D530216A4656
:108B40001176012101910299491E02910399582938
:108B500004D037A103910FA90F910DE039A1F9E7D6
:108B60006146059B049AFFF743FB039B8C469B5C85
:108B70000F9A521E0F92137061460143F0D10F9865
:108B800007A9081A20300390600704D501200004CB
:108B90008443029801E0012002900399884201DD9C
:108BA000401A00E00020411802900198091800982E
:108BB000401A0090E00306D42146149B139A0098B3
:108BC00000F05AF886190020049008E006A9085C15
:108BD000149A139990470498401C761C04900199AC
:108BE0008842F3DBE0030CD52146149B139A0098CE
:108BF00000F042F8861904E0149A30201399904747
:108C0000761C0299481E02900029F5DC08E00F98B6
:108C10000F990078491C0F91149A13999047761C6C
:108C20000399481E03900029F1DCFBE609280100A6
:108C300030313233343536373839616263646566D2
:108C40000000000030313233343536373839414294
:108C50004344454600000000F8B5044600251E4682
:108C60001746880404D405E039462020B0476D1C1F
:108C7000641EF9D52846F8BDFFB50446002581B02D
:108C80001E46C80301D5302700E02027880404D5FC
:108C900005E038460399B0476D1C641EF9D5284697
:108CA00005B0F0BD10B5054804F0C2FC002802D0A4
:108CB00000F006F801E000F02DF810BDCC270020F0
:108CC00008B50F480078022802D001200D498860BD
:108CD00069460D4800F094F9002802D000F01AF817
:108CE00008BD802009498860684600780849C86145
:108CF00002200349087080200449486000BFEFE764
:108D00000821002000200040CC2700200023004044
:108D1000002500401CB501200549C86005490870C0
:108D200003206946087068460349096888471CBDE6
:108D300000200040082100200421002000200549D7
:108D4000087001200449C860486000200349086099
:108D5000704700000821002000200040002500404E
:108D6000F8B504460F4615460026002028702078E6
:108D7000002809D02A463946204605F036FD064629
:108D8000002E01D03046F8BDA078002808D0294632
:108D9000384600F0D7FB0646002E01D03046F2E7F9
:108DA000E07800280ED002212A78501C2870B9548F
:108DB00001212A78501C2870B954E1782A78501C77
:108DC0002870B954606800280BD0002061680856EC
:108DD0002A46394607F074FD0646002E01D030467B
:108DE000D1E7208900280CDD3B46062202212046DF
:108DF0000830009507F075FE0646002E01D030467B
:108E0000C1E7208A00280CDD3B46072203212046CB
:108E10001030009507F065FE0646002E01D0304662
:108E2000B1E7208B00280CDD3B461522142120469B
:108E30001830009507F055FE0646002E01D030464A
:108E4000A1E7206A002809D02A463946206A02F0A4
:108E500075FD0646002E01D0304694E7606A002872
:108E600009D02A463946606A05F08AFC0646002E7B
:108E700001D0304687E72C20005D002809DD2A4616
:108E80003946204606F0D4FE0646002E01D0304674
:108E900079E7304677E70146C87804221040002879
:108EA00001D1072070470020FCE710B50122022104
:108EB000002001F0B1FF044600BF002C03D0072CB6
:108EC00001D0204610BD00BF07220221012001F081
:108ED000A3FF044600BF002C03D0072C01D020467E
:108EE000F0E700BF0A220021084601F095FF044682
:108EF00000BF002C03D0072C01D02046E2E700BFC2
:108F00000020DFE730B597B030210BA8FFF751F90B
:108F1000022108A80173012181730621C173032175
:108F20006846818711491091242102A8FFF741F971
:108F300001216846017528200690B4200790002082
:108F40000B4B02AA014600900BA800F095FC0446CA
:108F500000BF2546002D06D000BF0022114628463E
:108F600000F008F800BF00BF17B030BD122000208D
:108F700065ED010000BF00BF00BF00BF00BFBFF331
:108F80004F8F00BF00BF00BF06480749C86000BF41
:108F900000BF00BFBFF34F8F00BF00BF00BF00E0A6
:108FA00000BFFDE70400FA0500ED00E0F8B5054656
:108FB0000C46164605480768217805A0FFF70AFC0D
:108FC000324621462846B847F8BD00004826002012
:108FD0005B444D5D3A204E6F74696679696E672017
:108FE0006170706C69636174696F6E206F66206573
:108FF00076656E74203078253032580D0A000000F6
:1090000070B504460D46204604F017FB00280AD030
:10901000A068A18808402168085C2870A068401CEE
:10902000A060002070BD0520FCE70346002901D1A7
:109030000E207047002A03D0501E1040002801D097
:109040000920F6E71960501E988000209860D860CB
:1090500000BFEEE770B504460D46204604F0EDFA79
:10906000A188884209D8E068A188084021680D5489
:10907000E068401CE060002070BD0420FCE70000B8
:10908000F8B505460C4627780C21A06848430649E8
:109090000E580648006800902A4639462046083097
:1090A0002369B047F8BD0000A82800202C2100202B
:1090B00010B504460648007814225043044A121D95
:1090C00081182046FFF7DCFF042006F059FF10BD91
:1090D000DC27002070B503460C46194800680028BC
:1090E00001D1082070BD002A01D10720FAE7002B2A
:1090F00001D10720F6E700211CE024204843104D51
:109100002D68285C002814D10125242048430C4EEA
:109110003668355424204843094D2D684019447061
:1091200024204843064D2D684019826119600020B3
:10913000D8E7491C034800788142DEDB0420D1E7F0
:109140003821002034210020FFB581B00E4617469B
:109150001C4620468107890F002901D1012100E02A
:109160000021002902D1072005B0F0BD002C01D15B
:109170000720F9E706F092FC26490A98086026487D
:1091800006702648046000250CE000212420684376
:10919000224A1268115424206843204A1268801819
:1091A00001756D1CB542F0DB2420704304190320C7
:1091B0001B4908701B480460183400250CE0E900C6
:1091C000184A126888180021017041708770446045
:1091D000182179430C196D1C032DF0DB0020C043CE
:1091E00011490860002011490870114908701420C5
:1091F000FFF744F903211420FFF7D6F91420FFF7F5
:1092000047F9019806F020FC06F018FC09490860AF
:109210000020A9E758210020342100203821002017
:109220003C21002040210020442100205421002026
:109230005521002048210020FEB504460D46164663
:1092400016480068002801D10820FEBD14480078A7
:10925000844201D2052D01D20720F6E72420604385
:109260000E490968085C012801D00820EDE7242098
:1092700060430A49096840184078012801D128460E
:1092800000E00020074607F003FC3B462A46214643
:109290000096019007F046FAD7E700003821002039
:1092A0003421002070B504460D480068002801D123
:1092B000082070BD0B480078844201D30720F8E7EE
:1092C0002420604306490968085C012801D0082071
:1092D000EFE707F0DDFB0546214607F04DFAE8E72A
:1092E000382100203421002070B505460E4608A024
:1092F000FFF770FA002404E0295D06A0FFF76AFA80
:10930000641CB442F8D302A0FFF764FA70BD0000F9
:109310000D0A0000307825303258200010B58AB090
:1093200000240E4A07CA07AB07C300BF00200690FF
:109330000B480290012003900A480490FF2001305E
:10934000059006A80323084A02A9009007A800F088
:109350000DF8044600BF0AB010BD0000900C0200DA
:109360005E210020B4280020F1080200FFB583B080
:1093700004460E460020614908706149059808605E
:10938000002E02D1072007B0F0BDB08882B25D4840
:109390003168FFF74AFE0546002D01D02846F2E766
:1093A000B08982B25848B168FFF73FFE0546002DEC
:1093B00001D02846E7E76078032205210907072343
:1093C0001B02C9188300CA5000BF207800218A0000
:1093D00005231B0707273F02DB198700DA5100BF6F
:1093E00060784A49C86020784861A068486260791E
:1093F000002804D00E2045494031C86203E0002017
:1094000042494031C8622079022843D105F0D4FB9B
:10941000002806D105F0A8FB0546002D01D02846FE
:10942000B1E73B4800680290A07802A905F0CEFBA6
:109430000546002D01D02846A5E70020C04333494A
:109440000861A078886031484030C06A0121084333
:109450002E494031C8622E48001D00680190E07816
:109460002C4A01A905F0F6FA0546002D01D0284640
:1094700089E7E078012105F089FAE07805F064FBDE
:10948000002803D0002005F0E3FD02E0012005F0F4
:10949000DFFD0EE02079012806D1204607F060FAB2
:1094A00001201649087004E007F03AFA0120134938
:1094B00008700C980088002808D1174801780C988B
:1094C000018015480078401C134908700020C043F3
:1094D00012498860A120800048600220012181405B
:1094E0000F4A116000BF0699FFF722F80220012100
:1094F00081400C4A116000BF002044E70821002091
:1095000004210020BC270020CC270020002500409B
:10951000600C0200C9DE0100002100200023004091
:1095200080E200E000E100E070B504462146044816
:10953000FFF790FD0546022005F08AFD284670BD24
:10954000CC270020F8B505460C462078001D1F28C2
:1095500001DD0C20F8BD684679DF0646002E01D0FB
:109560003046F7E703212278501C2070A9541921B6
:109570002278501C2070A954207841196846008830
:1095800007F020FA2178401820700020E2E7000060
:1095900070B500220121090408480068FFF74CFE5D
:1095A000044600BF2546002D06D000BF002211460C
:1095B0002846FFF7DFFC00BF00BF70BD0C20002075
:1095C000F0B591B004460D46207D002819D000204A
:1095D000099000BF08A8007901090901491C08A8E1
:1095E00001710079F0218843103008A9087100BF8B
:1095F000697B08A84171807906218843801C08A9ED
:1096000088711C210AA8FEF7D4FD08A8007A02215F
:109610008843811C08A80172007A10218843217DAB
:10962000002901D0012100E0002109011022114090
:10963000084308A9087200200B900D900E90207D21
:10964000002801D009A800E000200F900020109011
:1096500000BF0121684681734949818100BF002014
:109660000290A97B68460172E97B4172807A0621EB
:109670008843811C68468172807A082188430146AC
:1096800068468172807A102188430146684681725B
:10969000807A4108490068468172297B0191142132
:1096A00004A8FEF786FD03A8049002A805900121F6
:1096B00068460183002141830121818301A808902C
:1096C000A088A31D04AA0AA9A2DF0646002E02D084
:1096D000304611B0F0BDA86800284DD000BF012170
:1096E000684681732749818100BF00200290287C51
:1096F0006946087200BF6846407A01090901684658
:109700004172407AF02188436946487200BF68463A
:10971000807A06218843811C68468172807A0821FC
:109720008843014668468172807A10218843014649
:1097300068468172807A4108490068468172A9684A
:1097400000F092FF0746142104A8FEF732FD03A89B
:10975000049002A805906846078300214183018B8D
:1097600081830890E08822460E3204A9A3DF0646D2
:10977000002E03D03046ACE70020E0810020A8E7AF
:10978000192A00000829000010B5044600F002F86C
:1097900010BD000070B512480079401C10490871D6
:1097A0001049114806F01FFAC5B229460F4800F0CB
:1097B00017FC0446002C0ED0082C0CD00C48844218
:1097C00009D00C48844206D000BF00221146204632
:1097D000FFF7D0FB00BF02490748FEF771FF70BDDD
:1097E0001E200020282200200420002080210020AC
:1097F0000430000001340000B4210020F3B593B020
:109800000D460021129111911398002814D013983D
:10981000FFF741FB0446002C02D0204615B0F0BDF6
:1098200012AA09A91398FFF79BFA0446002C01D04D
:109830002046F3E709AE00E00026002D13D02846AD
:1098400006F0FEFB0446002C01D02046E6E711AAF4
:1098500001A92846FFF784FA0446002C01D02046CF
:10986000DCE701AF00E0002710A803793A46017A4F
:10987000304672DFD2E70000F8B504460F461546C1
:109880001E46002C01D0002D01D10E20F8BD002075
:1098900048490870484806604849069808602422EC
:1098A00029464748FEF76CFC00F0AEF945484649AA
:1098B00008604648886030214548FEF77AFC2078E9
:1098C00043490870A0788870E078C8706078487064
:1098D000626920694A6108610846E268A168C2605D
:1098E0008160E269A169C2618161606A00281BD060
:1098F00038483749486238498160606A008834498D
:10990000496A0880606A80883149496A88800020F5
:1099100005E0616A8968095C2F4A1154401C2C4992
:10992000496A89888142F4D8A06A002824D02B494A
:109930002B4881602649886228492548806A8160D1
:10994000A06A80882249896A8880A06A00882049A4
:10995000896A0880002005E0A16A8968095C1F4ABD
:109960001154401C1A49896A89888142F4D82C20F4
:10997000015D174820300173206A00280BD0194878
:1099800013490862206A4088096A4880206A008872
:109990000F49096A08806068002804D012480C4901
:1099A00048606068486039460948FFF727FF009023
:1099B00000986BE7D8200020D0200020D420002081
:1099C0009C260020D0260020C0260020F026002063
:1099D0006C260020102700201C270020482700208C
:1099E0003C270020DC200020E020002070B5044649
:1099F0002088102804D0112806D0192876D11AE022
:109A0000A0883C49088072E000203B490870A0888B
:109A10003849098888420DD1012000F0FDF805463B
:109A2000002D07D035480068002803D02846334968
:109A3000096888475BE0A079002856D13048007853
:109A4000012806D0022816D0032826D004284AD19F
:109A500038E02CA0FEF7BEFE022000F0DDF805463F
:109A6000002D07D025480068002803D02846234948
:109A70000968884738E02FA0FEF7ACFE032000F00D
:109A8000CBF80546002D07D01C480068002803D0FD
:109A900028461A490968884726E003203249087099
:109AA0003248FEF797FE042000F0B6F80546002D78
:109AB00007D012480068002803D028460F490968DB
:109AC000884711E000202849087029A0FEF782FE8F
:109AD00037480068002804D02348007834490968D2
:109AE000884701E002E000BF00BF00E000BF00BF08
:109AF00070BD0000E2200020D9200020D4200020EA
:109B0000D82000205B4144565D3A2054696D65645D
:109B1000206F75742066726F6D206469726563745E
:109B20006564206164766572746973696E672E0D71
:109B30000A0000005B4144565D3A2054696D65643B
:109B4000206F75742066726F6D206469726563742E
:109B5000656420736C6F77206164766572746973D5
:109B6000696E672E0D0A0000CC2000201010020044
:109B70005B4144565D3A2054696D6564206F75748D
:109B80002066726F6D20736C6F77206164766572EA
:109B9000746973696E672C2073746F7070696E6777
:109BA000206164766572746973696E672E0D0A00B0
:109BB000D020002070B504460025022C02D0032CD2
:109BC00018D100E000BF0D480078002811D0002017
:109BD0000A4908700A48007800F01EF80546002D72
:109BE00007D008480068002803D0284605490968BE
:109BF000884700E000BF00BF70BD0000C420002007
:109C0000D8200020D420002010B507210148FEF7FD
:109C1000D0FA10BDC520002030B587B00546AB484E
:109C2000057000200090684605F0A4FB0446082C4F
:109C300002D10020009004E0002C02D0204607B0A2
:109C400030BD0098002804D00120A14908700020F0
:109C5000F5E7FFF7D9FF9F484078002803D09B48DD
:109C60000078012807D09B488078002812D09748B8
:109C7000007802280ED198480068002807D00120FB
:109C800096490870082094490968884702E0002036
:109C9000924908708D48007801280BD18D48407892
:109CA000002804D08E4805F083FA002802D1022053
:109CB000864908708548007802280BD1854880784D
:109CC000002804D0864805F073FA002802D103204A
:109CD0007E4908707F48007B002806D17B480078C9
:109CE000032802D10420794908707A48007E0028B0
:109CF00008D176480078042804D100207349087000
:109D00007849087074480068002817D06F480078B8
:109D1000032803D06D48007804280FD16D480078DF
:109D200000280BD070480078002807D101206F4927
:109D30000870072068490968884702E000206B49DD
:109D40000870182101A8FEF734FA00216846017155
:109D50000020029068460173002004905B48007860
:109D6000012806D0022814D0032829D004287DD148
:109D70005CE05FA0FEF72EFD5948401E02900121D5
:109D8000684601710021C182818201205549087015
:109D900085E057A0FEF71EFD5148401E02900121AC
:109DA000684601714B48008981B26846C1824948C2
:109DB000808881B26846818202204A4908706EE03C
:109DC0004448808A81B26846C1824248008A81B292
:109DD00068468182504806F006FF00281FD03D48A3
:109DE000007800281BD040480078002817D10220B6
:109DF000694608734848049004204849C870002107
:109E00004648FFF7FBFC0446002C01D0204616E72D
:109E100005203449087042A0FEF7DCFC05E0032071
:109E2000304908704CA0FEF7D5FC38E02948808BFB
:109E300081B2684681822748008C81B26846C1821F
:109E4000354806F0D0FE002821D0224800780028AE
:109E50001DD025480078002819D1022069460873D2
:109E60002D48049004202D49C87000E016E0002120
:109E70002A48FFF7C3FC0446002C01D02046DEE64A
:109E80000620184908703EA0FEF7A4FC05E0042057
:109E90001449087048A0FEF79DFC00E000BF00BF19
:109EA0000A480078002806D001A873DF0446002C79
:109EB00001D02046C3E608480068002804D00948BD
:109EC00000780549096888470020B8E6D8200020B6
:109ED000C42000209C260020D0200020DB20002071
:109EE000C6200020CC200020D9200020DA2000202D
:109EF0005B4144565D3A205374617274696E672009
:109F000064697265637420616476657274697365EF
:109F10006D656E742E0D0A00C02600206C26002090
:109F20005B4144565D3A205374617274696E6720D8
:109F300066617374206164766572746973656D65BA
:109F40006E7420776974682077686974656C6973CA
:109F5000742E0D0A000000005B4144565D3A205308
:109F600074617274696E67206661737420616476CF
:109F70006572746973656D656E742E0D0A0000005C
:109F80005B4144565D3A205374617274696E672078
:109F9000736C6F77206164766572746973656D6543
:109FA0006E7420776974682077686974656C69736A
:109FB000742E0D0A000000005B4144565D3A2053A8
:109FC00074617274696E6720736C6F772061647658
:109FD0006572746973656D656E742E0D0A000000FC
:109FE00033B587B004460025207C08A9097888424B
:109FF00032D0002005900690012168468182002120
:10A00000C18208A8069000782074E188608A05AAB9
:10A01000A4DF0546002D02D0284609B030BD608A75
:10A020000E49884217D0207D002814D000200190CE
:10A03000029003900490E18868468180012181713B
:10A04000C18A018105A8039006980490608A01A93D
:10A05000A6DF054600E008252846DEE7FFFF0000F2
:10A06000F8B504460D46286820600020C043608291
:10A0700028792075FF20207400BF01216846817077
:10A080000849018000BF221D69460120A0DF064665
:10A09000002E01D03046F8BD29462046FFF790FA41
:10A0A000F9E700000F18000070B505460C4620883F
:10A0B000102804D0112807D0502812D109E02146D9
:10A0C000284604F00AFF0DE02146284604F06CFF04
:10A0D00008E005A0FEF77EFB2146284605F004F8BF
:10A0E00000E000BF00BF70BD424C455F4741545483
:10A0F000535F4556545F57524954450D0A000000BE
:10A10000F8B504460E46306820600020C043E08267
:10A110007089208300BF0121684681700F4901804A
:10A1200000BF221D69460120A0DF0546002D01D099
:10A130002846F8BD3146204600F038FC0546002D83
:10A1400001D02846F5E73146204600F0D7FB05460A
:10A15000002D01D02846ECE70020EAE710180000A7
:10A16000FEB504460D46002000900190022168468D
:10A1700001800021418002A801906189E08A6A463D
:10A18000A5DF0646002E03D102A800F062FA28706F
:10A190003046FEBDF0B58BB004460F46E08A154947
:10A1A000884222D006AA3946204600F07BFC0646AB
:10A1B000059600200190029003900490E188684683
:10A1C0008180022181710021018105A8039006A8E8
:10A1D0000490E08A01A9A6DF0546002D04D1684657
:10A1E000808AB04200D00C2500E0082528460BB03C
:10A1F000F0BD0000FFFF000070B505460C4620884A
:10A20000102806D0112809D050280CD0532814D17A
:10A210000EE02146284604F063FE0FE02146284662
:10A2200004F0C6FE0AE02146284604F085FF05E05A
:10A230002146284604F0E2FE00E000BF00BF70BDEA
:10A2400070B505461C2229461448FDF799FF0020E9
:10A2500013490870286800280BD008221148296883
:10A26000FDF78EFF0F487ADF0446002C08D0204609
:10A2700070BD0C487BDF0446002C01D02046F7E778
:10A280000020C04308490880002008490870084A97
:10A2900000210848FEF71EFFEAE7000068270020BB
:10A2A000FC200020E4200020EE200020EC200020F4
:10A2B000F5090200F820002010B504462088102877
:10A2C00006D0112808D012280ED0502810D107E04F
:10A2D000204604F009FE0CE0204604F06DFE08E084
:10A2E000204604F037FF04E0204604F0E7FD00E0DC
:10A2F00000BF00BF10BD70B504460D46208829463A
:10A3000006F04EFB0646A2783046711CCEB22A54A7
:10A31000E2783046711CCEB22A5422793046711C44
:10A32000CEB22A5462793046711CCEB22A54A27938
:10A330003046711CCEB22A54304670BD7FB50446FB
:10A3400000BF0121684681735D49818100BF5D4A7C
:10A3500003A90120A0DF0546002D02D0284604B045
:10A3600070BD208800280DDD5748009022882346C4
:10A370003C335648616801F08DF80546002D01D048
:10A380002846ECE7208900280EDD514800902289FC
:10A3900023463C334D48401FE16801F07BF80546F9
:10A3A000002D01D02846DAE7208A00280EDD494832
:10A3B0000090228A23463C334448001F616901F023
:10A3C00069F80546002D01D02846C8E7208B0028F3
:10A3D0000EDD41480090228B23463C333B48801ED3
:10A3E000E16901F057F80546002D01D02846B6E78F
:10A3F000208C00280EDD39480090228C23463C3307
:10A400003248C01E616A01F045F80546002D01D0B2
:10A410002846A4E7208D00280EDD31480090228DCB
:10A4200023463C332948401EE16A01F033F80546D3
:10A43000002D01D0284692E7206B002813D001A8F8
:10A44000216B05F0B4FF274823463C33082201A9BD
:10A4500000901E48801F01F01DF80546002D01D018
:10A4600028467CE700BF606B00280FD01E48009094
:10A47000606B027923463C3301681448401C01F0AC
:10A4800009F80546002D01D0284668E7A06B002892
:10A4900013D001A8A16B04F00DFF144823463C33F0
:10A4A000072201A900900948273000F0F3FF054674
:10A4B000002D01D0284652E700BF00204FE70000E2
:10A4C0000A1800006420002066200020292A0000CD
:10A4D0006E200020762000207E2000208620002094
:10A4E0008E200020962000209E200020A620002004
:10A4F00010B5044621460D48FFF77EFE21460C4864
:10A50000FFF7D2FD21460B4800F050F82046FFF738
:10A51000D3FE204601F0AEFF204600F0BFFB2046F0
:10A5200004F03EFC2046FFF761FA10BD98210020A0
:10A5300080210020B4210020F8B504460E46206892
:10A5400020600020C043E08531793020015500BFF4
:10A550000121684681700F21C943018000BF221D7F
:10A5600069460120A0DF0546002D01D02846F8BD30
:10A570003146204603F00CFF0546002D01D0284649
:10A58000F5E73146204603F007FE0546002D01D0D1
:10A590002846ECE73146204603F076FE0546002DBE
:10A5A00001D02846E3E70020E1E7000070B505464A
:10A5B0000C462088102804D0112807D050281AD122
:10A5C00009E02146284604F085FC15E0214628468E
:10A5D00004F0E6FC10E009A0FEF7FCF8E088E98C46
:10A5E000884203D1E1880BA0FEF7F4F82146284603
:10A5F00004F054FD00E000BF00BF70BD424C455F59
:10A6000047415454535F4556545F57524954450D82
:10A610000A000000705F626C655F6576742D3E65B0
:10A6200076742E67617474735F6576742E777269C1
:10A6300074652E68616E646C65203D25640D0A00AA
:10A6400070B504460D462846FDF7BEFD20806560C6
:10A6500070BD014600BF08784B781B0218430246C4
:10A660000220104040087047F8B505460E46002409
:10A6700032782146641C6A5472782146641C6A54FC
:10A6800000BF022C01D1012000E000200746002F6E
:10A6900006D100BF002211461046FEF76BFC00BF3A
:10A6A00000BF2046F8BD00007CB500BF0023482253
:10A6B0002349082005F084FC054600BF2E46002EE5
:10A6C00006D000BF002211463046FEF753FC00BF03
:10A6D00000BF00BF002000900190694608706846E6
:10A6E00060DF044600BF2546002D06D000BF0022D3
:10A6F00011462846FEF73EFC00BF00BF114805F09A
:10A7000053FC044600BF2546002D06D000BF0022A2
:10A7100011462846FEF72EFC00BF00BF0A4805F090
:10A7200083FC044600BF2546002D06D000BF002252
:10A7300011462846FEF71EFC00BF00BF7CBD00008E
:10A74000F0240020F1A401009D03020030B58BB07D
:10A7500001A91A48FFF704FD044600BF2546002D55
:10A7600006D000BF002211462846FEF703FC00BFBA
:10A7700000BF6846007900281ED0114800780028E4
:10A780001AD102A800F006FA02A90C48FFF702FD50
:10A790000446002C02D0082C05D103E00120084912
:10A7A000087008E007E000BF002211462046FEF7CF
:10A7B000E1FB00BF00BF00BF0BB030BD98210020FF
:10A7C000022000207FB50446A17802AA244804F0A4
:10A7D000E9FD0546002D3BD11C20009001906078DA
:10A7E0001C2670431F4E831961781F48039AFDF79A
:10A7F000F1FF61781C225143324688181C231A4607
:10A8000002A904F00BFF0546002D04D061782A460A
:10A8100016A0FDF7DFFF382000906078182358431A
:10A82000214BC218617818232048FDF7D3FF204838
:10A83000807A80001F490A58214602A890470546A1
:10A84000002D0BD061782A461BA0FDF7C3FF05E061
:10A85000A27861782B462848FDF7BCFF7FBD000039
:10A86000B020002008260020FC0D02005B444D5D56
:10A870003A5B253032585D3A204661696C65642048
:10A88000746F206C6F616420426F6E6420696E6625
:10A890006F726D6174696F6E2C20726561736F6E7B
:10A8A00020253038580D0A0024260020580E0200BA
:10A8B000482600203C0C02005B444D5D3A5B25308D
:10A8C00032585D3A204661696C656420746F206C73
:10A8D0006F6164207365727669636520696E666F67
:10A8E000726D6174696F6E2C20726561736F6E207A
:10A8F000253038580D0A0000E40C020070B590B005
:10A9000005460C461C2109A8FDF753FC08A9087947
:10A9100002218843801C08A9087100200A900C902D
:10A920000D900E900F9000BF0121684681731E4963
:10A93000818100BF002002906846807A062188430A
:10A94000811C68468172E1790172217A4172807AB4
:10A9500008218843014668468172807A1021884325
:10A96000014668468172807A4108490068468172D2
:10A97000142104A8FDF71DFC608901A906F010F858
:10A98000064603A8049002A80590684606830021A5
:10A990004183868301A80890A8882B460E3304AA19
:10A9A00009A9A2DF10B070BD492A000030B59DB0E2
:10A9B00005460C460020159000BF10A8007D010937
:10A9C0000901491C10A80175007DF0218843103051
:10A9D00010A9087500BF10A8807D06218843811C3E
:10A9E00010A88175217941751C2116A8FDF7E1FB9E
:10A9F00010A8007E20218843203010A9087600206E
:10AA0000179019901A9015A81B9000201C9000BF59
:10AA1000012108A8817722496846818700BF00206C
:10AA20000E9008A8807E06218843811C08A88176A4
:10AA300061790176A1794176807E082188430146BB
:10AA400008A88176807E10218843014608A8817677
:10AA5000807E41084900491C08A88176142110A86D
:10AA6000FDF7A7FB242105A8FDF7A3FB0FA8109075
:10AA70000EA811906A4605A9284600F013F8014671
:10AA800010A8018100214181142181816846149020
:10AA9000A888AB1D10AA16A9A2DF1DB030BD00000A
:10AAA000352A0000F8B50C46164600270125207807
:10AAB000002801D0012007430620205600030F2163
:10AAC0000903084021890905090D084300907119FF
:10AAD000009805F065FF4019C5B20A202056000312
:10AAE0000F2109030840A1890905090D08430090B9
:10AAF0007119009805F054FF4019C5B20E20205678
:10AB000000030F2109030840218A0905090D0843A4
:10AB100000907119009805F043FF4019C5B26078A4
:10AB2000002808D002200743711920461230FFF791
:10AB3000E2FB4019C5B2A078002812D004200743D8
:10AB40001A20205600030F2109030840A18B090594
:10AB5000090D084300907119009805F021FF401974
:10AB6000C5B2E078002806D008200743A27F284617
:10AB7000691CCDB232542079002807D01020074339
:10AB80007119208C05F00CFF4019C5B237702846AA
:10AB9000F8BD000010B50446002020703C48007845
:10ABA000002803D03A480078022801D1012000E0B3
:10ABB0000020607036480078002803D034480078C0
:10ABC000012801D1012000E00020A0700020E070E9
:10ABD00020712F48007800012E49401841882181BA
:10ABE0002B48007800012B49085CA07128480078A8
:10ABF00000014018C188A18125480078000125493D
:10AC000040180079A072224800780001401841895C
:10AC100021821F48007800011E494018007AA07365
:10AC200008221D4920461230FDF7AAFA184800787C
:10AC3000000118494018C189A18315480078000116
:10AC400014494018007BA07611480078401C104938
:10AC5000087008460078042801D1002008700E48CA
:10AC600080791B300C498871084680793B280DDDBE
:10AC7000084680793C38887108464079401C487104
:10AC8000084640793B2801DD0020487110BD0000D6
:10AC90002C200020E82100202420002070B505464B
:10ACA0002888102802D0112832D118E01A480068EC
:10ACB00000280ED100F0F2FE044600BF002C07D0A1
:10ACC00016480068002803D02046144909688847C0
:10ACD00000BF11480068401C0F49086019E00E4889
:10ACE0000068401E0C4908600846006800280ED124
:10ACF000FEF7DBF8044600BF002C07D007480068C9
:10AD0000002803D0204605490968884700BF00E0B5
:10AD100000BF00BF70BD00005C2000205820002054
:10AD200010B5032000F02EFB044600BF002C03D01A
:10AD3000062C01D0204610BD00BF0020FBE700001C
:10AD4000F3B581B006460025002400E0641C042C05
:10AD500004D2A00029490858B042F7D1042C42D2AD
:10AD60000298002825D0012802D002283AD133E0E9
:10AD70006000201822490D5C6000201840184078BF
:10AD800000280ED01F4800680A22504301461E4A80
:10AD90001E480068FEF750FA0746002F01D11A48F6
:10ADA0000670600020181649401880781849085528
:10ADB00018E016480068FEF775FA1548005D610056
:10ADC00061180F4A89188978884204D160002018D8
:10ADD00011464018857805E06000201808494018A1
:10ADE000457800BF00BF002D07D00A480068002842
:10ADF00003D02846074909688847FEBDFC0B0200BE
:10AE00003825002038200020502000204C20002031
:10AE1000512000204820002030B503460020042B9C
:10AE200024D2012A07D1012903D11C460D34E4B2F2
:10AE300000E00024224600290FD0012902D0022977
:10AE400011D104E05C001C19094D2A550DE05C008D
:10AE50001C19074D6419627007E05C001C19044D51
:10AE60006419A27001E0072000BF00E0072030BD98
:10AE70003825002070B50446002506480078C00734
:10AE8000C00F002803D0204600F006F805462846EB
:10AE900070BD00003C200020F8B5044600250026C7
:10AEA0002300FDF7A7FC180D18195C9FF7F5F4F3C4
:10AEB000F2F1F0EFEEEDECEBEAE9E8E7E6E5E4E3EA
:10AEC00000BF0B204005FB4988600020C86000BF20
:10AED000F94804704FE200BF00BF05208005F54926
:10AEE00088600020C86000BF084640680F214905FF
:10AEF000484001214905084000280FD000BF0846FE
:10AF0000EC4988600020C86000BF022C02D1E1201B
:10AF1000C00001E07D20400106460EE000BF012098
:10AF20004005E449C8600020886000BF022C01D1C0
:10AF3000C82001E0FF2091300646DF4804706421FC
:10AF40003046FDF7F3F8DD4909684843074600221B
:10AF50003946DB480068FEF76FF905460BE200BF93
:10AF600005208005D34988600020C86000BF0846DE
:10AF700040680F2149054840012149050840002843
:10AF80000FD000BF0846CB4988600020C86000BFD2
:10AF9000032C02D11920400101E07D20400106462A
:10AFA0000EE000BF01204005C249C8600020886053
:10AFB00000BF032C01D1C82001E0FF2091300646DC
:10AFC000BD48047064213046FDF7B0F8BB490968FC
:10AFD0004843074600223946B9480068FEF72CF975
:10AFE0000546C8E100BF05208005B2498860002001
:10AFF000C86000BF084640680F214905484001214C
:10B000004905084000280FD000BF0846A9498860BC
:10B010000020C86000BF042C02D17D20400101E067
:10B020007D20400106460FE000BF01204005A149F8
:10B03000C8600020886000BF042C02D1FF2091303E
:10B0400001E0FF20913006469B48047064213046A1
:10B05000FDF76CF8994909684843074600223946CC
:10B0600097480068FEF7E8F8054684E182E176E15A
:10B0700074E161E14EE13BE12FE1F4E0F2E0F0E068
:10B08000EEE0ECE0E2E0C9E0B2E099E082E06FE0FF
:10B0900042E0FFE700BF0520800586498860002068
:10B0A000C86000BF084640680F214905484001219B
:10B0B0004905084000280ED000BF08467D49886039
:10B0C0000020C86000BF052C01D1C82001E07D2010
:10B0D000400106460EE000BF012040057549C860EA
:10B0E0000020886000BF052C01D1C82001E0FF20AE
:10B0F000913006467048047064213046FDF716F81A
:10B100006E49096848430746002239466C48006882
:10B11000FEF792F805462EE100BF0520800565493F
:10B1200088600020C86000BF084640680F214905BC
:10B130004840012149050840002806D000BF0846C4
:10B140005C4988600020C86007E000BF012040051E
:10B150005849C8600020886000BF574804705748AD
:10B160000022016856480068FEF766F8054602E1CD
:10B1700000BF052080054F4988600020C86000BFDF
:10B1800000BF01204005C8600020886000BF4A4819
:10B190000470F0E000BF47494868012189058143F8
:10B1A000444A9160012189050140D16000BF4348B4
:10B1B0000022016842480068FEF73EF80546DAE0E2
:10B1C00000BF3C494868012189058143394A9160A3
:10B1D000012189050140D16000BF38480068820024
:10B1E0008118002236480068FEF726F80546C2E0BE
:10B1F00000BF304948680121890581432D4A91608B
:10B20000012189050140D16000BF2C48002201685E
:10B210002B480068FEF710F80546ACE000BF254952
:10B220004868012189058143224A916001218905ED
:10B230000140D16000BF21480068820081180022CF
:10B240001F480068FDF7F8FF054694E000BF0F2097
:10B2500040051849C8600020886000BF8BE000BF2F
:10B2600000BF00BF00BF17480068FEF71BF8054687
:10B270001120061B002E27D0002D25D1012E10D91C
:10B28000C821714308466421FCF750FF0B49096847
:10B2900048430746002239460A480068FDF7CCFFBC
:10B2A000054600BF0120C0050249C8600020886033
:10B2B00012E000000005005034200020382000205B
:10B2C000402000204420002000BF0120C0052B4961
:10B2D00088600020C86000BF4DE000BF0F2040051F
:10B2E000264988600020C86000BF2548047042E0FD
:10B2F00000BF07208005214988600020C86000BF8A
:10B3000000BF01204005C8600020886000BF1C48C5
:10B31000047030E000BF0D2040051849886000200F
:10B32000C86000BF00BF01208005C86000208860A1
:10B3300000BF134804701EE000BF0320C0050F4982
:10B3400088600020C86000BF00BF03204005C860BF
:10B350000020886000BF0A4804700CE000BF00BFF6
:10B360000F2040050549C8600020886000BF0448E0
:10B37000047000E000BF00BF2846F8BD0005005083
:10B380003420002070B50246002021E08400124DD8
:10B390002C59A400114D64192168012484401440E3
:10B3A000002C01D0032400E00024234603252D04B3
:10B3B0000C46AC4321461C042143052424070725E1
:10B3C0002D0264198500044E7559AD006151401C71
:10B3D0000428DBD3002070BDFC0B020000070050E6
:10B3E0000021C9438200054B9950042804DB0B4619
:10B3F000011F024A34325354704700008427002052
:10B4000001468800014A1058704700008427002038
:10B41000F7B585B00B460020C0430490002A01D048
:10B42000002000E004200390002A01D0042000E066
:10B430000520029003991EE08800124C2058401C01
:10B44000002817D10846059C0093019246B20D4D85
:10B4500014352E5585000B4E009B7351019A002A1E
:10B4600004D166B2051F074F34377E5500BF48B27E
:10B47000049003E0491C02988142DDD300BF049888
:10B4800008B0F0BD842700200146014840567047AF
:10B4900098270020F0B58FB007460D4614461E468B
:10B4A00000BF002D01D0012000E000200090009896
:10B4B000002806D100BF002211461046FDF75AFDB4
:10B4C00000BF00BF00BF002C01DD012000E0002014
:10B4D00000900098002806D100BF002211461046B7
:10B4E000FDF748FD00BF00BF1C2107A8FCF761FE67
:10B4F0006946087F02218843801C6946087700203E
:10B5000008900A900B900C900D9000BF012108A8A4
:10B5100081766846078700BF002001903178684631
:10B52000017171784171807906218843811C6846D8
:10B53000817180790821884301466846817180794C
:10B54000102188430146684681718079410849008D
:10B5500068468171142102A8FCF72BFE0EA8029008
:10B5600001A80390684604820021418284820695E6
:10B5700002AA07A902480088149BA2DF0FB0F0BD01
:10B5800064200020F0B587B03E480078142148437D
:10B590003C49091D4418E7680C21A06848433A4912
:10B5A0004018008906900C21A0684843364940188D
:10B5B000408905900C21A0684843334940184068F1
:10B5C000049003F0E1FF014602903846FCF7AEFD1F
:10B5D000002901D1012000E0002003900599069880
:10B5E0004843049946186088C019A188451800206E
:10B5F000264908600398002804D003F0C5FF61883D
:10B6000088420AD00398002804D0B54202D1A0880D
:10B61000002802D0A06802280CD103F0B5FF014633
:10B6200002903846FCF782FD19490860032004F0B7
:10B63000A7FC24E003F0A8FF0190A188C819019994
:10B64000FCF774FD88081349086003F09DFF01466C
:10B6500001902846FCF76AFD002901D1012000E095
:10B6600000200290B54206D00298002803D1B1B262
:10B67000A8B204F0FFFE022004F082FC00BF07B075
:10B68000F0BD0000DC270020A82800201C2100209D
:10B69000202100201821002010B50848007814212E
:10B6A00048430649091D44182078042802D000F0B8
:10B6B000A5F801E004F000FE10BD0000DC2700202A
:10B6C00010B50F480078142148430D49091D44184E
:10B6D00060880C4908602078012804D0032805D030
:10B6E000042809D105E004F0E7FD06E0FFF74AFF72
:10B6F00003E005F070F900E000BF00BF10BD0000DE
:10B70000DC2700202C21002010B5034840780028B9
:10B7100001D0FFF7D5FF10BDDC2700200023142146
:10B7200041430C4A53541421414389184B8001234F
:10B730001421414389188B60002314214143891847
:10B74000CB601421414389180B61142141438918AE
:10B750008B807047E0270020FFB581B00646174672
:10B760001C4840780A2830D01A480078194949788E
:10B7700044180A2C00D30A3C142060431549091DC3
:10B780000E54142060434018076114206043411890
:10B79000029805C8CA608860142161430D4A121DD1
:10B7A0008918049848801421614389180A98888070
:10B7B000101F4078401C111F48700748007800286F
:10B7C00001D1FFF77DFF002500E00425284605B0E4
:10B7D000F0BD0000DC2700201421002010B500205F
:10B7E000054908704870002403E02046FFF796FFE3
:10B7F000641C0A2CF9D310BDDC27002010B50848C2
:10B80000007814225043064A121D81180020FDF7CB
:10B8100037FC00F007F8002004F0B2FB10BD000078
:10B82000DC27002010B509490878FFF777FF0748A3
:10B830004078401E0549487008460078401CC0B258
:10B8400008700A2801D10020087010BDDC270020F4
:10B85000FEB51E480068401C002834D01B48006814
:10B86000242148431A4909684018456804F0E6F85D
:10B870000190184804682146019804F027FEC61C70
:10B8800015480078002801D104F0EAF8AE4201D250
:10B89000284600E0304604192402240A20460F49B5
:10B8A000086000BF04F0CAF800900199009804F005
:10B8B0000DFEC71C2046019904F008FE874201D9FD
:10B8C00004F0C8FF01E004F0E9F8FEBD44210020C7
:10B8D00038210020482100205C2100204015014033
:10B8E00001460888062808DB08881922D201904200
:10B8F00005DD0888104A904201D00720704748882B
:10B90000062808DB48881922D201904205DD4888C4
:10B91000094A904201D00720F0E70888064A904281
:10B9200008D04888904205D008884A88904201DDB6
:10B930000720E3E70020E1E7FFFF0000F8B5064637
:10B940000D4614462078801D1F2801D90C20F8BD13
:10B950003046FFF7C5FF0746002F01D03846F6E70F
:10B9600005212278501C2070A95412212278501CE5
:10B970002070A95422785119308805F023F82178D5
:10B980004018207022785119708805F01BF8217832
:10B99000401820700020DAE710B5044600BF0022EE
:10B9A00011462046FDF7E6FA00BF10BD30B587B05E
:10B9B0001C216846FCF7FDFB002000900520C00319
:10B9C00001900F20000402900321684601730021BA
:10B9D000C18101740A4805900A4806906846FEF73E
:10B9E0002FFC044600BF2546002D06D000BF0022D4
:10B9F00011462846FDF7BEFA00BF00BF07B030BDB4
:10BA000089EE010099B9010038B51F4802F002FB28
:10BA1000002829D11D48007800280AD01C48406918
:10BA2000002820D0002000901948416968468847C6
:10BA300019E018480078002802D11548456801E04F
:10BA4000134885680022294613480068FDF7F4FB77
:10BA50000446002C07D00E488069002803D00C480B
:10BA60008169204688470AE009484069002806D0D5
:10BA700001200090064841696846884700BF0020C1
:10BA80000249087038BD0000F0200020FC20002092
:10BA900068270020EC200020F820002010B50122AB
:10BAA00000210846FFF7B8F9044600BF002C03D078
:10BAB000072C01D0204610BD00BF07220221012023
:10BAC000FFF7AAF9044600BF002C03D0072C01D0D1
:10BAD0002046F0E700BF042202210020FFF79CF976
:10BAE000044600BF002C03D0072C01D02046E2E71B
:10BAF00000BF0020DFE7000070B504460EA0FCF791
:10BB000069FE22460121194800F064F80546002D1F
:10BB10000BD117A02168FCF75DFE02210C222068E2
:10BB200050431F4A8018817203E01EA0FCF752FEAA
:10BB30000425284670BD00005B444D5D3A205265E7
:10BB4000717565737420746F20616C6C6F636174C0
:10BB5000696F6E20636F6E6E656374696F6E2069C6
:10BB60006E7374616E63650D0A000000FFFF0000D4
:10BB70005B444D5D3A5B253032585D3A20436F6E31
:10BB80006E656374696F6E20496E7374616E636570
:10BB900020416C6C6F63617465642E0D0A000000B7
:10BBA0003C2600205B444D5D3A204E6F2066726556
:10BBB0006520636F6E6E656374696F6E20696E7366
:10BBC00074616E63657320617661696C61626C6536
:10BBD0000D0A000070B503460C460820002115E050
:10BBE0000C254D430B4EAD19AD7A2540002D0CD0E0
:10BBF000094DAB4205D00C254D43AD192D899D4211
:10BC000002D11160002003E00520491C0029E7D083
:10BC100000BF70BD3C260020FFFF000010B50446A9
:10BC200021460DA0FCF7D6FD01210C206043174AE8
:10BC300080188172891E0C20604380180181FF21C9
:10BC40000C2060438018C1720C21614388180721C1
:10BC5000FCF7AFFA10BD00005B444D5D3A20496E21
:10BC6000697469616C697A696E6720436F6E6E658D
:10BC70006374696F6E20496E7374616E6365203002
:10BC800078253038582E0D0A000000003C26002090
:10BC900010B514484068C105C90D002920D00A46D6
:10BCA000103A50B200280DDA0E4B1C330407240F53
:10BCB000083CA408A4001B598407E40EE3401B06BB
:10BCC0009B0F0BE0084B032424021B198408A400DB
:10BCD0001B598407E40EE3401B069B0FD8B210BD2E
:10BCE0000420FCE700ED00E000E100E010B51C4896
:10BCF00000680821084000282FD11A480068401C1D
:10BD00001849086018480068002803D0042004F08F
:10BD10003BFB24E002F0E2F9002803D0022004F00B
:10BD200033FB1CE011480068002813D00C48007851
:10BD3000C007C00F002809D1094800680121084345
:10BD400007490860002004F01FFB08E0032004F00E
:10BD50001BFB04E004F0ECFA01E004F0F9FA10BD7A
:10BD60003021002020210020182100201C2100204B
:10BD700010B50C4800680821084000280FD1094878
:10BD8000006802210840002805D00648006801210B
:10BD9000084304490860022004F0F6FA01E004F0C8
:10BDA000D7FA10BD30210020FEB504460E463BA058
:10BDB000FCF710FDA1786A46414803F0F3FA054606
:10BDC000002D63D160780C2148433E494018807AA9
:10BDD00040210840402801D0022E06D16278A17887
:10BDE00039A0FCF7F7FC484F0EE0012E06D162782F
:10BDF000A17846A0FCF7EEFC534F05E06278A178ED
:10BE00005248FCF7E7FC524FA0781C225043514A9D
:10BE1000811800231C226846B8470546002D20D112
:10BE2000022E1ED060780C21484326494018807AA3
:10BE30004021884361780C225143224A8918887234
:10BE400060781C225043444A81181C231A466846D5
:10BE5000B8470546002D04D0A1782A463FA0FCF73C
:10BE6000B9FC022E12D020780C2148434B494018CF
:10BE7000807A80004A490A5821466846904705461C
:10BE8000002D03D0294647A0FCF7A4FC002D03D0C9
:10BE9000294652A0FCF79EFCFEBD00005B444D5DB0
:10BEA0003A202D2D3E206465766963655F636F6E71
:10BEB000746578745F73746F72650D0A000000001A
:10BEC000B02000203C2600205B444D5D3A5B444995
:10BED00020253032585D3A5B434920253032585D89
:10BEE0003A202D3E205570646174696E6720626F40
:10BEF0006E64696E6720696E666F726D6174696FDA
:10BF00006E2E0D0A000000005DF901005B444D5DDE
:10BF10003A5B444920253032585D3A5B434920253D
:10BF20003032585D3A202D3E2053746F72696E672F
:10BF300020626F6E64696E6720696E666F726D61F4
:10BF400074696F6E2E0D0A0031F80100F00E0200C8
:10BF50004D02020044250020082600205B444D5D70
:10BF60003A5B3078253032585D3A4661696C6564D9
:10BF700020746F2073746F726520626F6E64206925
:10BF80006E666F726D6174696F6E2C20726561737D
:10BF90006F6E203078253038580D0A004826002072
:10BFA0002C0C02005B444D5D3A204661696C65646F
:10BFB00020746F2073746F72652073657276696385
:10BFC0006520636F6E746578742C20726561736F81
:10BFD0006E20253038580D0A000000005B444D5D8E
:10BFE0003A204661696C656420746F2073746F72C7
:10BFF000652064657669636520636F6E7465787427
:10C000002C20726561736F6E20253038580D0A0040
:10C01000F0B585B005460E463448039000245EE036
:10C020001C20604332494018027C214631A0FCF7B5
:10C03000D1FB1C2060432E494018817D1C206043A9
:10C040002B4A8018427D1C206043294BC018007D7C
:10C050000192029100901C2060431F46C019C37CCE
:10C060001C206043C019827C1C206043C019417CA5
:10C070002AA0FCF7AFFB1C20604339464018807EA5
:10C08000FF282BD13078022814D01C2060434018A0
:10C09000807E022188431C2161433A4689188876B4
:10C0A0001C21614389180846103007223146FCF7ED
:10C0B00067F80BE01C2060430D494018807E410862
:10C0C00049001C2060430A4A801881762C700020A9
:10C0D0000390214621A0FCF77DFB02E0641C072CA5
:10C0E0009ED300BF039805B0F0BD00004380000060
:10C0F000442500205B444D5D3A5B4449203078255F
:10C100003032585D3A2044657669636520747970F1
:10C1100065203078253032582E0D0A005B444D5D85
:10C120003A20446576696365204164647220307802
:10C13000253032582030782530325820307825305C
:10C140003258203078253032582030782530325817
:10C15000203078253032582E0D0A00005B444D5DAA
:10C160003A20416C6C6F6361746564206465766924
:10C17000636520696E7374616E6365203078253065
:10C1800032580D0A00000000F0B585B005460E4695
:10C19000174605200490002D0BD0A87969792A79DB
:10C1A000009201910290EB78AA7869782B48FCF70D
:10C1B00011FB00244CE01C20604329494018027CFC
:10C1C000214628A0FCF706FB1C20604324494018A8
:10C1D000817D1C206043224A8018427D1C206043E0
:10C1E0001F4BC018007D0192029100901C206043FB
:10C1F00019464018C37C1C2060434018827C1C20D8
:10C2000060434018407C0146039020A0FCF7E2FA0E
:10C21000002D06D11C20604311494018008BB84204
:10C220000DD0002D13D01C2161430D4A89180846FA
:10C23000103007222946FBF7CEFF002807D1214600
:10C2400022A0FCF7C7FA34600020049002E0641CCE
:10C25000072CB0D300BF049805B0F0BD9C0C0200C1
:10C26000442500205B444D5D3A5B444920307825ED
:10C270003032585D3A204465766963652074797080
:10C2800065203078253032582E0D0A005B444D5D14
:10C290003A20446576696365204164647220307891
:10C2A00025303258203078253032582030782530EB
:10C2B00032582030782530325820307825303258A6
:10C2C000203078253032582E0D0A00005B444D5D39
:10C2D0003A20466F756E64206465766963652061F7
:10C2E0007420696E7374616E636520307825303216
:10C2F000580D0A007CB50446A1B26A460A4803F00C
:10C3000051F80546002D0DD1214608A0FCF762FA30
:10C310005421684603F098F80546002D02D12046C6
:10C3200002F054FF28467CBDB02000205B444D5DE8
:10C330003A5B4449203078253032585D3A204672C5
:10C340006565696E6720496E7374616E63652E0D55
:10C350000A000000F8B50E46154600BF2F46002F14
:10C3600006D000BF002211463846FCF703FE00BF8E
:10C3700000BF3078152817D169460D48FDF7F0FE4B
:10C38000044600BF2746002F06D000BF00221146FA
:10C390003846FCF7EFFD00BF00BF68460078002874
:10C3A00001D0FEF7D3F900E000BF00BF0020F8BDC8
:10C3B000982100207FB50546039503F0EBF804466D
:10C3C00000BF2646002E06D000BF00221146304690
:10C3D000FCF7D0FD00BF00BF03A800F00DFD044630
:10C3E00000BF2646002E06D000BF00221146304670
:10C3F000FCF7C0FD00BF00BF052101A80130FBF71D
:10C40000D8FE6846407941084900491C6846417198
:10C4100040790221884301466846417140791C21D8
:10C42000884301460C316846417140792021884398
:10C43000014668464171072181711021C1710B4885
:10C4400000900121684601716946094800F0D2FF59
:10C45000044600BF2646002E06D000BF002211462B
:10C460003046FCF787FD00BF00BF7FBD55C301000C
:10C4700010200020F0B58FB00446FF200D9000265C
:10C480000020089000BFF1480078002801D10FB0CB
:10C49000F0BD00BF00BFEE480068002800D1F6E7FD
:10C4A00000BF0CA800F09AFC054600BF0795079D49
:10C4B000002D06D000BF002211460798FCF75AFD58
:10C4C00000BF00BF00270025201D0A902A216846D2
:10C4D0008185FF2108A881740021017400200E903D
:10C4E0002088102813D0A0880EAA0221FFF772FB23
:10C4F0000546002D0BD10C210E984843D549401814
:10C50000C17A08A881740E98C1B208A84174208825
:10C5100017287DD008DC10280DD0112864D01328EE
:10C5200077D0142876D1A7E0182874D01C2873D0AF
:10C530005228F7D158E30EA8FFF7DEFA0546002D82
:10C5400051D10126112108A801710E98C1B208A885
:10C550004174A1880C220E985043BE4A8018018174
:10C5600002210C220E985043BA4A801881720C2284
:10C570000E995143B74A88180722A11DFBF700FE08
:10C58000207D304000280AD0207D4008B249085C58
:10C59000FF280AD0207D4008085C0D9005E0AF4AD6
:10C5A0000DA9A01DFFF7F0FD0546002D1BD10D982C
:10C5B000C1B20C220E985043A64A8018C1720C21B9
:10C5C0000E98484311464018807A082108430C22EF
:10C5D0000E9951439F4A8918887208A90D9888744A
:10C5E0000CA8FEF7EFF814E3A1799DA0FCF7F2F890
:10C5F0000C210E98484397494018807A02218843BD
:10C600000C220E995143934A891888720C2104E038
:10C61000B6E18CE0FCE279E2F2E20E984843114682
:10C620004018807A0821084008280ED10C210E9865
:10C63000484311464018807A8021084080280FD155
:10C6400000210CA8FFF7B0FB0AE008A8807CFF28B7
:10C6500006D008A9887C02F0B9FDFF2008A98874DB
:10C6600010210C220E9850437A4A801881720126BC
:10C67000122008A90871CCE282A0FCF7ABF80C21CB
:10C680000E98484373494018C07AFF2823D1E289A5
:10C690000DA90020FFF778FD0546002D1BD10D9850
:10C6A000C1B20C220E9850436A4A8018C1720C2104
:10C6B0000E98484311464018807A082108430C22FE
:10C6C0000E995143634A8918887208A90D98887495
:10C6D0000CA8FEF777F80C210E9848435D494018E6
:10C6E000C07AFF2809D01C210E9848436F49401892
:10C6F000089011210898FCF7F7FD1C220E99514370
:10C700006B4A89180191A08800230A46089982DFA4
:10C710000546002D0AD00C210E9848434D4940187B
:10C72000C27A2B4663480E99FCF754F871E262A076
:10C73000FCF750F8132008A908710C210E98484303
:10C7400044494018807A042108430C220E99514331
:10C75000404A8918887201260C210E9848431146D8
:10C760004018C07AFF2822D10C220E9850430A4666
:10C7700081180DA8FFF74CFC0546002D10D159A0DB
:10C780000D9A0E99FCF726F808A90D9888740D9853
:10C79000C1B20C220E9850432E4A8018C17221E07B
:10C7A00029465AA0FCF716F82F4601261AE0162053
:10C7B00008A9087118220E995143634A891808463E
:10C7C00008300E21FBF7F5FC0C210E984843214957
:10C7D0004018807A402108430C220E9951431D4A8B
:10C7E00089188872A079C007C00F0090607A40074E
:10C7F000C30FA07A8007C20F607AC107C90F53A088
:10C80000FBF7E8FF002005900C210E9848431149E2
:10C810004018C07A1C21484325494118069100213F
:10C8200007911C210E98484320494018029000208F
:10C8300003900490A08802AB054A121D00217FDFFF
:10C840000546002D01D0294694E098E0BC20002048
:10C85000482600203C260020BD200020FFFF0000CD
:10C860005B444D5D3A20446973636F6E6E6563741B
:10C8700020526561736F6E203078253034580D0A70
:10C88000000000005B444D5D3A203E3E20424C4596
:10C890005F4741505F4556545F5345435F494E469D
:10C8A0004F5F524551554553540D0A00082600204C
:10C8B00044250020C00F02005B444D5D3A203E3EFF
:10C8C00020424C455F4741505F4556545F534543B6
:10C8D0005F504152414D535F524551554553540DA0
:10C8E0000A0000005B444D5D3A5B434920307825E7
:10C8F0003032585D3A5B4449203078253032585DFB
:10C900003A20426F6E646564210D0A005B444D5D00
:10C910003A20536563757269747920706172616D34
:10C9200065746572207265717565737420666169DE
:10C930006C65642C20726561736F6E2030782530D1
:10C9400038582E0D0A000000242600205B444D5D5F
:10C950003A203078253032582C2030782530325823
:10C960002C203078253032582C2030782530325821
:10C970000D0A0000B9A0FBF72DFF2F46002648E165
:10C98000A179C6A0FBF726FFD048407A40084000B6
:10C99000CE4948720C210E984843CD494018807A00
:10C9A000042188430C220E995143C94A8918887280
:10C9B000142008A908710126A079002809D00C22AA
:10C9C0000E995143C24A8918C87AFFF793FCA77998
:10C9D0009BE00621A01DFCF787FC1C220E99514309
:10C9E000BC4A88181C21FCF77FFCE0794007C00F87
:10C9F00000287DD008A8807CFF2879D00C210E98D3
:10CA00004843B3494018807A082108430C220E9904
:10CA10005143AF4A89188872E07A8007C00F002816
:10CA20000FD008A8807C1C214843AB494018807E69
:10CA30004108490008A8807C1C225043A64A80185F
:10CA400081760C210E984843A1494018C07AFF28EE
:10CA50005BD008A8827CA1480E99FBF7BBFE0C2195
:10CA60000E9848439A49085C02282BD00C230E9A52
:10CA70005A430B46D11808AA927C1C235A43964B62
:10CA8000D218104610300722FBF77AFB08A8807CEA
:10CA90001C21484390494018817E0220814308A808
:10CAA000807C1C2250438C4A8018817608A9897C9E
:10CAB0001C225143884A8918084610300721FCF788
:10CAC00013FC1EE01C210E98484382494018418AFD
:10CAD00008A8807C1C2250437F4A8018018308A844
:10CAE000807C1C21484311464018807E410800E0AC
:10CAF0000BE0490008A8807C1C225043764A80182D
:10CB0000817601210CA8FFF74FF982E0A079020994
:10CB10000107090F7248FBF75DFEA07900090128A3
:10CB20003DD1A0790007000F012838D10C210E98C3
:10CB3000484367494018807A0821084008282ED1C8
:10CB400018220E995143674A891808180E21FBF7DD
:10CB500030FB162008A908710C210E9848435C4947
:10CB60004018807A202108430C220E995143584ADC
:10CB7000891888720C210E98484311464018807A13
:10CB8000402108430C220E995143514A891888725A
:10CB90004E48407A022108434C49487221E00C215A
:10CBA0000E9848434A494018807A802108430C2255
:10CBB0000E995143464A89188872152008A90871B0
:10CBC0004248807A8000484A11580CA88847054698
:10CBD000002D06D008A8827C417C44A0FBF7FAFD1A
:10CBE000524F0027012614E051A0FBF7F3FD374810
:10CBF000807A80003C4A11580CA88847074608E014
:10CC000056A0FBF7E7FD132008A90871012600E0F4
:10CC100000BF00BF002E1ED03A4609A90CA8FCF7A1
:10CC2000C5F908A80079122815D100BF54A00E99A3
:10CC3000FBF7D0FD0C210E98484325494018807A17
:10CC4000012806D05AA00E99FBF7C4FD0E98FEF7F6
:10CC5000E5FF00BF00BF00BF19E400005B444D5D6D
:10CC60003A20536563757269747920706172616DE1
:10CC700065746572207265706C7920726571756576
:10CC80007374206661696C65642C20726561736FD2
:10CC90006E203078253038582E0D0A005B444D5DEB
:10CCA0003A203E3E20424C455F4741505F45565436
:10CCB0005F415554485F5354415455532C2073746D
:10CCC0006174757320253038580D0A0048260020FD
:10CCD0003C2600200826002044250020E4C801004E
:10CCE000340F0200242600204C0C02005B444D5DF2
:10CCF0003A5B4349203078253032585D3A5B4449ED
:10CD0000203078253032585D3A204661696C656480
:10CD100020746F206170706C79207365727669631E
:10CD20006520636F6E746578740D0A0041800000A1
:10CD30005B444D5D3A203E3E20424C455F474154A6
:10CD400054535F4556545F5359535F415454525F97
:10CD50004D495353494E470D0A0000005B444D5D59
:10CD60003A203E3E20424C455F4741505F45565475
:10CD70005F5345435F524551554553540D0A0000DA
:10CD80005B444D5D3A5B4349203078253032585D35
:10CD90003A2046726565696E6720636F6E6E6563E3
:10CDA00074696F6E20696E7374616E63650D0A003D
:10CDB0005B444D5D3A5B253032585D3A20467265E2
:10CDC000656420636F6E6E656374696F6E20696E53
:10CDD0007374616E63652E0D0A0000000146002920
:10CDE00001D104487047FF20087048708870C870EF
:10CDF0000020F7E70E800000F0B587B0064662A07D
:10CE0000FBF7E8FC002E02D1644807B0F0BD002417
:10CE100013E000BF214662A0FBF7DCFC00210C20E0
:10CE200060436C4A11500C206043801841720C2002
:10CE300060438018817200BF641C002CE9D000247C
:10CE400003E02046FEF7EAFE641C002CF9D018210E
:10CE50006148FBF7AEF9002406E0204602F0B6F97F
:10CE6000FF205E490855641C072CF6D35421684600
:10CE70000183072141835A4805905A4905A802F0C9
:10CE80004BFC0546002D75D10120574908703078BC
:10CE9000002861D15348416854A0FBF79BFC002453
:10CEA00057E0A1B203AA4F4802F07CFA0546002DD4
:10CEB00045D1214655A0049AFBF78CFC1C21614307
:10CEC0005C4A881800231C2203A902F0A7FB054630
:10CED000002D08D02A4621465748FBF77BFC00204E
:10CEE0004149087037E01C20604352494018027CD9
:10CEF000214652A0FBF76EFC1C2060434D494018B0
:10CF0000817D1C2060434B4A8018427D1C20604379
:10CF1000484BC018007D0192029100901C20604394
:10CF20001F46C019C37C1C206043C019827C1C2092
:10CF30006043C019417C4BA0FBF74CFC08E02A463B
:10CF400021465848FBF746FC00202749087002E0BC
:10CF5000641C072CA5D311E06A46108B528B5043FA
:10CF600081B2204802F070FA05464FA0FBF732FC70
:10CF700004E0FFE729465BA0FBF72CFC69A0FBF768
:10CF800029FC284641E700005B444D5D3A203E3EC7
:10CF900020646D5F696E69742E0D0A000E800000BA
:10CFA0005B444D5D3A20496E697469616C697A69C8
:10CFB0006E67204170706C69636174696F6E20499F
:10CFC0006E7374616E6365203078253038582E0D8D
:10CFD0000A0000004826002024260020BD20002052
:10CFE00039D10100B0200020BC2000205B444D5D01
:10CFF0003A2053746F726167652068616E646C6576
:10D00000203078253038582E0D0A00005B444D5DE5
:10D010003A5B3078253032585D3A20426C6F636B52
:10D020002068616E646C65203078253038582E0D8C
:10D030000A00000044250020740D02005B444D5D91
:10D040003A5B4449203078253032585D3A204465B7
:10D0500076696365207479706520307825303258A0
:10D060002E0D0A005B444D5D3A2044657669636588
:10D070002041646472203078253032582030782581
:10D0800030325820307825303258203078253032F0
:10D090005820307825303258203078253032582EBC
:10D0A0000D0A0000300D02005B444D5D3A205375BF
:10D0B000636365737366756C6C79207265717565F1
:10D0C0007374656420636C656172206F662070659F
:10D0D0007273697374656E7420646174612E0D0AD5
:10D0E000000000005B444D5D3A204661696C656458
:10D0F00020746F2072656769737465722077697434
:10D10000682073746F72616765206D6F64756C65FC
:10D110002C20726561736F6E203078253038582E60
:10D120000D0A00005B444D5D3A203C3C20646D5F7D
:10D13000696E69742E0D0A00FFB591B00F461D4649
:10D1400000BF80480068002801D115B0F0BD00BFC5
:10D150001A98542800D9F8E7012007900DA8FFF786
:10D160003DFE064600BF0696069E002E06D000BF76
:10D17000002211460698FBF7FDFE00BF00BF00210C
:10D1800008A8017501760C951A980B90002006905E
:10D1900016E0069881B208AA6B4802F003F9064629
:10D1A000002E0AD1082208A91198FBF714F80028CC
:10D1B00003D108A90698887505E00698401C0690DA
:10D1C00006980728E5D300BF08A8807DFF287DD0FA
:10D1D000032F0AD11A98542803D1202008A90876D1
:10D1E0008CE0402008A9087688E05849681A1C217C
:10D1F000FAF79CFF0446072C1DD20AA80F9013983B
:10D20000002810D108A9887D01218140504A126868
:10D210001140002901D0012100E00021002902D1A4
:10D22000002007906AE008A9887D03F0D9FB202040
:10D2300008A9087662E04749681A1C21FAF776FFC8
:10D240000446002C20D108A8427D817D42A0FBF736
:10D25000C1FA0AA80F90202108A801764475002081
:10D260000490494905911C2060433A4940180190B7
:10D2700008A8807D1C21484334494018029001A829
:10D280000C9018200B9039E04049681A1821FAF7E1
:10D290004DFF0446002C26D108A8427D817D3CA08C
:10D2A000FBF798FA302108A8017644750121C17571
:10D2B0000C20604342494018807A0221084002282D
:10D2C0001CD008A8427D817D3E4800E038E0FBF795
:10D2D00081FA08A9497D182251432C4A881818213F
:10D2E000FAF767FF0AE008A8427D817D36A0FBF7C8
:10D2F00071FA00200790402108A8017607980128BC
:10D300001ED1032F06D108A9087E0321084308A9CE
:10D3100008760EE0022F06D108A9087E01210843F5
:10D3200008A9087605E008A9087E0221084308A993
:10D3300008760AA80F900EA90DA8139AFBF736FEDF
:10D3400000BF02E748260020B0200020442500202E
:10D35000B8200020082600205B444D5D3A5B307801
:10D36000253032585D3A5B3078253032585D3A20AE
:10D37000426F6E6420636F6E7465787420457665C5
:10D380006E740D0A000000005426002024260020A0
:10D390005B444D5D3A5B3078253032585D3A5B3006
:10D3A00078253032585D3A2053657276696365207E
:10D3B000636F6E74657874204576656E740D0A002F
:10D3C0003C260020A40E02005B444D5D3A5B3078A1
:10D3D000253032585D3A5B3078253032585D3A203E
:10D3E00041707020636F6E74657874204576656E49
:10D3F000740D0A0070B505460C4600BF2E48007833
:10D40000002801D12D4870BD00BF002D02D12B484E
:10D41000801DF8E7002C02D12848801DF3E7206822
:10D42000002802D12548801DEDE725A0FBF7D2F9A1
:10D4300029480068002837D128A0FBF7CBF92649F6
:10D44000206808600522611D2348001DFAF798FE38
:10D450002079214988720846007A40084000087205
:10D460000846007A02218843801C1B49087208463E
:10D47000007A04218843184908720846C079400898
:10D480004000401CC8710846C07902218843801CB6
:10D490001149C8710846C079042188430E49C871F2
:10D4A00000202870002601E0044E361F15A0FBF76F
:10D4B00091F93046A7E70000BC200020088000005A
:10D4C0005B444D5D3A203E3E20646D5F7265676946
:10D4D000737465722E0D0A00482600205B444D5D72
:10D4E0003A204170706C69636174696F6E20496E97
:10D4F0007374616E636520616C6C6F6361746564E5
:10D500002E0D0A005B444D5D3A203C3C20646D5F6B
:10D5100072656769737465722E0D0A0001461448BE
:10D520000078144A127890421DD011480078401CAF
:10D530000F4A107010460078022801D100201070A8
:10D540000B48007880000C4A105808600B4A0868A5
:10D5500012688018094A1060104600680002000A2C
:10D560001060012070470020086000BFFAE700004B
:10D5700054210020552100204C210020482100206A
:10D5800010B50D48006808210840002810D10B484C
:10D590000068401C0949086000F0A0FD002802D185
:10D5A000FEF77AF806E00648007802F0E9FC01E0B0
:10D5B00001F0D6F810BD000030210020202100200D
:10D5C00014210020F0B50346002426E0164E3668EC
:10D5D00024277E43154F3F68F01946689E4203D9C1
:10D5E0004668F61A46601DE046689B1B466834197B
:10D5F0000026466006750C4E35680B4F066A3E6085
:10D600000669002E08D00E193602360A86600669B1
:10D61000C66016680662156000BF03480068401CBB
:10D620000028D3D100BFF0BD4421002038210020C4
:10D6300001468A68C868801A704701468A68C868C7
:10D64000801A704710B50446002C02D0112C08D166
:10D6500000E00AE006480068082108430449086021
:10D6600003E02046FBF724FD00BF00BF10BD000013
:10D670003021002010B50C480068401C0A490860A1
:10D6800003280DD009480078022804D00748007804
:10D6900002F076FC07E00648007802F075FE02E032
:10D6A0000D20FBF705FD10BD2421002014210020D2
:10D6B0001521002010B50A480078012804D002285E
:10D6C00008D0032809D102E002F0FCFD06E0FFF7D4
:10D6D00057FF03E002F04CFE00E000BF00BF10BDAA
:10D6E0001421002070B50446204628DF0546FFF7C8
:10D6F000A9FF70BDF8B504460D46164632462946C8
:10D70000204629DF0746FFF79DFFF8BD70B50446A8
:10D710000D46E0B2FBF708FF204670BD3EB500BFE6
:10D720006846007801090901491C009168460078A3
:10D73000F02188431030009000BF03221EA16846EC
:10D740007CDF044600BF2546002D06D000BF002226
:10D7500011462846FBF70EFC00BF00BF0720C001A2
:10D7600078DF044600BF2546002D06D000BF00220A
:10D7700011462846FBF7FEFB00BF00BF00200190CA
:10D780000290FF219131684681804900C1800021CB
:10D790000181FF219131418101A87ADF044600BF58
:10D7A0002546002D06D000BF002211462846FBF773
:10D7B000E1FB00BF00BF3EBD4C41310010B5044647
:10D7C00002A0FBF707F8002010BD00005B444D5D90
:10D7D0003A202D2D3E2067617474635F636F6E7411
:10D7E0006578745F6170706C790D0A0070B50446DD
:10D7F0000D4602A0FAF7EEFF002070BD5B444D5DC0
:10D800003A202D2D3E2067617474635F636F6E74E0
:10D810006578745F6C6F61640D0A000070B5044632
:10D820000D4602A0FAF7D6FF002070BD5B444D5DA7
:10D830003A202D2D3E2067617474635F636F6E74B0
:10D840006578745F73746F72650D0A00FEB50446E7
:10D85000002700200190002644A0FAF7BBFF607863
:10D860001821484349494018436860780C214843CF
:10D8700047494018827A60780146009045A0FAF73F
:10D88000A9FF6078182148434049401840680028A3
:10D890002AD060780C2148433D494018807A802185
:10D8A0000840802820D160780C214843384940182E
:10D8B000807A40210840402816D042A0FAF78AFF1B
:10D8C0006078182148433149401807460837607886
:10D8D000182148432D494018808880B20190607813
:10D8E0001821484329490E5861780C225143284A8F
:10D8F0008918088933463946019AA9DF05460B2D58
:10D900000BD1012661780C225143214A89180889DC
:10D9100033463946019AA9DF0546002D04D0294631
:10D9200030A0FAF757FF3D4D012E1CD161780C2233
:10D930005143174A89180889394A0C21A7DF05463F
:10D94000002D10D029463748FAF744FF3648854263
:10D9500008D0082D06D0801C854203D0112D01D09F
:10D96000002500E02D4D2846FEBD00005B444D5DC6
:10D970003A202D2D3E2067617474735F636F6E745F
:10D980006578745F6170706C790D0A002426002040
:10D990003C2600205B444D5D3A5B434920307825AE
:10D9A0003032585D3A2053746174652030782530E8
:10D9B00032582C2053697A65203078253038580D3C
:10D9C0000A0000005B444D5D3A2053657474696E33
:10D9D000672073746F72656420636F6E746578740A
:10D9E0002E0D0A005B444D5D3A204661696C65640A
:10D9F00020746F207365742073797374656D206172
:10DA00007474726962757465732C20726561736FCA
:10DA10006E203078253038582E0D0A0041800000E5
:10DA2000FFFF0000B80D020002300000F8B5054607
:10DA30000C46A27861781DA0FAF7CCFE6178182216
:10DA40005143284A881838231822294601F0E6FD58
:10DA50000646002E23D1607818277843214FC0193D
:10DA60004368617820486A68FAF7B4FE6178182242
:10DA700051433A4688181821FBF736FC6078182184
:10DA80004843394640184068401C00280CD100210A
:10DA90006078182250433A468018416004E061786B
:10DAA000324612A0FAF796FE3046F8BD5B444D5D53
:10DAB0003A5B4349203078253032585D3A5B44491F
:10DAC000203078253032585D3A202D2D3E20676178
:10DAD0007474735F636F6E746578745F6C6F616488
